{
  "_format": "hh-sol-artifact-1",
  "contractName": "FeeCollectModule",
  "sourceName": "contracts/core/modules/collect/FeeCollectModule.sol",
  "abi": [
    {
      "inputs": [
        {
          "internalType": "address",
          "name": "hub",
          "type": "address"
        },
        {
          "internalType": "address",
          "name": "moduleGlobals",
          "type": "address"
        }
      ],
      "stateMutability": "nonpayable",
      "type": "constructor"
    },
    {
      "inputs": [],
      "name": "FollowInvalid",
      "type": "error"
    },
    {
      "inputs": [],
      "name": "InitParamsInvalid",
      "type": "error"
    },
    {
      "inputs": [],
      "name": "ModuleDataMismatch",
      "type": "error"
    },
    {
      "inputs": [],
      "name": "NotHub",
      "type": "error"
    },
    {
      "inputs": [],
      "name": "HUB",
      "outputs": [
        {
          "internalType": "address",
          "name": "",
          "type": "address"
        }
      ],
      "stateMutability": "view",
      "type": "function"
    },
    {
      "inputs": [],
      "name": "MODULE_GLOBALS",
      "outputs": [
        {
          "internalType": "address",
          "name": "",
          "type": "address"
        }
      ],
      "stateMutability": "view",
      "type": "function"
    },
    {
      "inputs": [
        {
          "internalType": "uint256",
          "name": "profileId",
          "type": "uint256"
        },
        {
          "internalType": "uint256",
          "name": "pubId",
          "type": "uint256"
        }
      ],
      "name": "getPublicationData",
      "outputs": [
        {
          "components": [
            {
              "internalType": "uint256",
              "name": "amount",
              "type": "uint256"
            },
            {
              "internalType": "address",
              "name": "currency",
              "type": "address"
            },
            {
              "internalType": "address",
              "name": "recipient",
              "type": "address"
            },
            {
              "internalType": "uint16",
              "name": "referralFee",
              "type": "uint16"
            },
            {
              "internalType": "bool",
              "name": "followerOnly",
              "type": "bool"
            }
          ],
          "internalType": "struct ProfilePublicationData",
          "name": "",
          "type": "tuple"
        }
      ],
      "stateMutability": "view",
      "type": "function"
    },
    {
      "inputs": [
        {
          "internalType": "uint256",
          "name": "profileId",
          "type": "uint256"
        },
        {
          "internalType": "uint256",
          "name": "pubId",
          "type": "uint256"
        },
        {
          "internalType": "bytes",
          "name": "data",
          "type": "bytes"
        }
      ],
      "name": "initializePublicationCollectModule",
      "outputs": [
        {
          "internalType": "bytes",
          "name": "",
          "type": "bytes"
        }
      ],
      "stateMutability": "nonpayable",
      "type": "function"
    },
    {
      "inputs": [
        {
          "internalType": "uint256",
          "name": "referrerProfileId",
          "type": "uint256"
        },
        {
          "internalType": "address",
          "name": "collector",
          "type": "address"
        },
        {
          "internalType": "uint256",
          "name": "profileId",
          "type": "uint256"
        },
        {
          "internalType": "uint256",
          "name": "pubId",
          "type": "uint256"
        },
        {
          "internalType": "bytes",
          "name": "data",
          "type": "bytes"
        }
      ],
      "name": "processCollect",
      "outputs": [],
      "stateMutability": "nonpayable",
      "type": "function"
    }
  ],
  "bytecode": "0x60c060405234801561001057600080fd5b5060405161128938038061128983398101604081905261002f91610128565b81816001600160a01b038116610058576040516348be0eb360e01b815260040160405180910390fd5b6001600160a01b03811660808190526040514281527f4e84a529f4c627b5e787037d117873af1018768804cca3c7f0d47041fe2c89ed9060200160405180910390a2506001600160a01b0381166100c2576040516348be0eb360e01b815260040160405180910390fd5b6001600160a01b03811660a08190526040514281527ff1a1fa6b64aa95186f5a1285e76198d0da80d9c5a88062641d447f1d7c54e56c9060200160405180910390a250505061015b565b80516001600160a01b038116811461012357600080fd5b919050565b6000806040838503121561013b57600080fd5b6101448361010c565b91506101526020840161010c565b90509250929050565b60805160a0516110d86101b1600039600081816101a101528181610205015281816103620152818161041d0152818161053b0152818161064901526108c101526000818161016201526109fc01526110d86000f3fe608060405234801561001057600080fd5b50600436106100575760003560e01c80633f5038921461005c57806388ffe8511461015d578063a4c52b861461019c578063c233f951146101c3578063e49c3dda146101e3575b600080fd5b61010761006a366004610d25565b6040805160a0810182526000808252602082018190529181018290526060810182905260808101919091525060009182526020828152604080842092845291815291819020815160a0810183528154815260018201546001600160a01b039081169482019490945260029091015492831691810191909152600160a01b820461ffff166060820152600160b01b90910460ff161515608082015290565b60408051825181526020808401516001600160a01b039081169183019190915283830151169181019190915260608083015161ffff169082015260809182015115159181019190915260a0015b60405180910390f35b6101847f000000000000000000000000000000000000000000000000000000000000000081565b6040516001600160a01b039091168152602001610154565b6101847f000000000000000000000000000000000000000000000000000000000000000081565b6101d66101d1366004610d90565b6101f8565b6040516101549190610e3b565b6101f66101f1366004610e66565b610357565b005b6060336001600160a01b037f00000000000000000000000000000000000000000000000000000000000000001614610243576040516313bd2e8360e31b815260040160405180910390fd5b60008080808061025587890189610ef7565b9398509196509450925090506001600160a01b038316158061027c575061271061ffff8316115b80610285575084155b156102a3576040516348be0eb360e01b815260040160405180910390fd5b60008a8152602081815260408083208c84528252918290208781556001810180546001600160a01b0319166001600160a01b0389811691909117909155600290910180549187166001600160b01b031990921691909117600160a01b61ffff8716021760ff60b01b1916600160b01b851515021790558151601f8a018290048202810182019092528882528990899081908401838280828437600092019190915250929d9c50505050505050505050505050565b336001600160a01b037f000000000000000000000000000000000000000000000000000000000000000016146103a0576040516313bd2e8360e31b815260040160405180910390fd5b600084815260208181526040808320868452909152902060020154600160b01b900460ff16156103d4576103d48486610404565b838614156103ee576103e98585858585610706565b6103fc565b6103fc8686868686866107db565b505050505050565b604051633648f48360e21b8152600481018390526000907f00000000000000000000000000000000000000000000000000000000000000006001600160a01b03169063d923d20c90602401602060405180830381865afa15801561046c573d6000803e3d6000fd5b505050506040513d601f19601f820116820180604052508101906104909190610f5f565b905060006001600160a01b03821615610522576040516311470f4360e21b8152600481018590526001600160a01b0384811660248301526000604483015283169063451c3d0c90606401602060405180830381865afa1580156104f7573d6000803e3d6000fd5b505050506040513d601f19601f8201168201806040525081019061051b9190610f7c565b9050610634565b60405163a9ec656360e01b8152600481018590526000907f00000000000000000000000000000000000000000000000000000000000000006001600160a01b03169063a9ec656390602401602060405180830381865afa15801561058a573d6000803e3d6000fd5b505050506040513d601f19601f820116820180604052508101906105ae9190610f5f565b90506001600160a01b0381161580159061063057506040516370a0823160e01b81526001600160a01b0385811660048301528216906370a0823190602401602060405180830381865afa158015610609573d6000803e3d6000fd5b505050506040513d601f19601f8201168201806040525081019061062d9190610f99565b15155b9150505b801580156106e25750826001600160a01b03167f00000000000000000000000000000000000000000000000000000000000000006001600160a01b0316636352211e866040518263ffffffff1660e01b815260040161069591815260200190565b602060405180830381865afa1580156106b2573d6000803e3d6000fd5b505050506040513d601f19601f820116820180604052508101906106d69190610f5f565b6001600160a01b031614155b1561070057604051636992d36b60e11b815260040160405180910390fd5b50505050565b600084815260208181526040808320868452909152902080546001909101546001600160a01b031661073a848483856109a5565b6000806107456109f7565b60008a8152602081815260408083208c84529091528120600201549294509092506001600160a01b039091169061271061078361ffff851688610fc8565b61078d9190610fe7565b9050600061079b8288611009565b90506107b26001600160a01b0387168d8584610a83565b81156107cd576107cd6001600160a01b0387168d8785610a83565b505050505050505050505050565b600084815260208181526040808320868452909152902080546001909101546001600160a01b031661080f848483856109a5565b600086815260208181526040808320888452909152812060020154600160a01b900461ffff169080806108406109f7565b909350905061271061085661ffff831688610fc8565b6108609190610fe7565b9150600090506108708287611009565b905083156109465760006127106108878684610fc8565b6108919190610fe7565b905061089d8183611009565b6040516331a9108f60e11b8152600481018f90529092506000906001600160a01b037f00000000000000000000000000000000000000000000000000000000000000001690636352211e90602401602060405180830381865afa158015610908573d6000803e3d6000fd5b505050506040513d601f19601f8201168201806040525081019061092c9190610f5f565b90506109436001600160a01b0388168e8385610a83565b50505b60008a8152602081815260408083208c84529091529020600201546001600160a01b039081169061097b9087168d8385610a83565b8215610996576109966001600160a01b0387168d8686610a83565b50505050505050505050505050565b6000806109b485870187611020565b9150915082811415806109d95750836001600160a01b0316826001600160a01b031614155b156103fc576040516346308bd560e01b815260040160405180910390fd5b6000807f00000000000000000000000000000000000000000000000000000000000000006001600160a01b03166398f965d16040518163ffffffff1660e01b81526004016040805180830381865afa158015610a57573d6000803e3d6000fd5b505050506040513d601f19601f82011682018060405250810190610a7b919061104c565b915091509091565b604080516001600160a01b038581166024830152848116604483015260648083018590528351808403909101815260849092018352602080830180516001600160e01b03166323b872dd60e01b17905283518085019094528084527f5361666545524332303a206c6f772d6c6576656c2063616c6c206661696c65649084015261070092879291600091610b1b918516908490610ba2565b805190915015610b9d5780806020019051810190610b399190610f7c565b610b9d5760405162461bcd60e51b815260206004820152602a60248201527f5361666545524332303a204552433230206f7065726174696f6e20646964206e6044820152691bdd081cdd58d8d9595960b21b60648201526084015b60405180910390fd5b505050565b6060610bb18484600085610bbb565b90505b9392505050565b606082471015610c1c5760405162461bcd60e51b815260206004820152602660248201527f416464726573733a20696e73756666696369656e742062616c616e636520666f6044820152651c8818d85b1b60d21b6064820152608401610b94565b6001600160a01b0385163b610c735760405162461bcd60e51b815260206004820152601d60248201527f416464726573733a2063616c6c20746f206e6f6e2d636f6e74726163740000006044820152606401610b94565b600080866001600160a01b03168587604051610c8f9190611086565b60006040518083038185875af1925050503d8060008114610ccc576040519150601f19603f3d011682016040523d82523d6000602084013e610cd1565b606091505b5091509150610ce1828286610cec565b979650505050505050565b60608315610cfb575081610bb4565b825115610d0b5782518084602001fd5b8160405162461bcd60e51b8152600401610b949190610e3b565b60008060408385031215610d3857600080fd5b50508035926020909101359150565b60008083601f840112610d5957600080fd5b50813567ffffffffffffffff811115610d7157600080fd5b602083019150836020828501011115610d8957600080fd5b9250929050565b60008060008060608587031215610da657600080fd5b8435935060208501359250604085013567ffffffffffffffff811115610dcb57600080fd5b610dd787828801610d47565b95989497509550505050565b60005b83811015610dfe578181015183820152602001610de6565b838111156107005750506000910152565b60008151808452610e27816020860160208601610de3565b601f01601f19169290920160200192915050565b602081526000610bb46020830184610e0f565b6001600160a01b0381168114610e6357600080fd5b50565b60008060008060008060a08789031215610e7f57600080fd5b863595506020870135610e9181610e4e565b94506040870135935060608701359250608087013567ffffffffffffffff811115610ebb57600080fd5b610ec789828a01610d47565b979a9699509497509295939492505050565b61ffff81168114610e6357600080fd5b8015158114610e6357600080fd5b600080600080600060a08688031215610f0f57600080fd5b853594506020860135610f2181610e4e565b93506040860135610f3181610e4e565b92506060860135610f4181610ed9565b91506080860135610f5181610ee9565b809150509295509295909350565b600060208284031215610f7157600080fd5b8151610bb481610e4e565b600060208284031215610f8e57600080fd5b8151610bb481610ee9565b600060208284031215610fab57600080fd5b5051919050565b634e487b7160e01b600052601160045260246000fd5b6000816000190483118215151615610fe257610fe2610fb2565b500290565b60008261100457634e487b7160e01b600052601260045260246000fd5b500490565b60008282101561101b5761101b610fb2565b500390565b6000806040838503121561103357600080fd5b823561103e81610e4e565b946020939093013593505050565b6000806040838503121561105f57600080fd5b825161106a81610e4e565b602084015190925061107b81610ed9565b809150509250929050565b60008251611098818460208701610de3565b919091019291505056fea264697066735822122004874b2fee7063ecf187212b7423af9d3584047eedf68cfdafb0928960b2bc9164736f6c634300080a0033",
  "linkReferences": {},
  "deployedLinkReferences": {}
}