{
  "_format": "hh-sol-artifact-1",
  "contractName": "MultirecipientFeeCollectModule",
  "sourceName": "contracts/core/modules/collect/MultirecipientFeeCollectModule.sol",
  "abi": [
    {
      "inputs": [
        {
          "internalType": "address",
          "name": "hub",
          "type": "address"
        },
        {
          "internalType": "address",
          "name": "moduleGlobals",
          "type": "address"
        }
      ],
      "stateMutability": "nonpayable",
      "type": "constructor"
    },
    {
      "inputs": [],
      "name": "CollectExpired",
      "type": "error"
    },
    {
      "inputs": [],
      "name": "FollowInvalid",
      "type": "error"
    },
    {
      "inputs": [],
      "name": "InitParamsInvalid",
      "type": "error"
    },
    {
      "inputs": [],
      "name": "InvalidRecipientSplits",
      "type": "error"
    },
    {
      "inputs": [],
      "name": "MintLimitExceeded",
      "type": "error"
    },
    {
      "inputs": [],
      "name": "ModuleDataMismatch",
      "type": "error"
    },
    {
      "inputs": [],
      "name": "NotHub",
      "type": "error"
    },
    {
      "inputs": [],
      "name": "RecipientSplitCannotBeZero",
      "type": "error"
    },
    {
      "inputs": [],
      "name": "TooManyRecipients",
      "type": "error"
    },
    {
      "inputs": [],
      "name": "HUB",
      "outputs": [
        {
          "internalType": "address",
          "name": "",
          "type": "address"
        }
      ],
      "stateMutability": "view",
      "type": "function"
    },
    {
      "inputs": [],
      "name": "MODULE_GLOBALS",
      "outputs": [
        {
          "internalType": "address",
          "name": "",
          "type": "address"
        }
      ],
      "stateMutability": "view",
      "type": "function"
    },
    {
      "inputs": [
        {
          "internalType": "uint256",
          "name": "profileId",
          "type": "uint256"
        },
        {
          "internalType": "uint256",
          "name": "pubId",
          "type": "uint256"
        },
        {
          "internalType": "bytes",
          "name": "data",
          "type": "bytes"
        }
      ],
      "name": "calculateFee",
      "outputs": [
        {
          "internalType": "uint160",
          "name": "",
          "type": "uint160"
        }
      ],
      "stateMutability": "view",
      "type": "function"
    },
    {
      "inputs": [
        {
          "internalType": "uint256",
          "name": "profileId",
          "type": "uint256"
        },
        {
          "internalType": "uint256",
          "name": "pubId",
          "type": "uint256"
        }
      ],
      "name": "getBasePublicationData",
      "outputs": [
        {
          "components": [
            {
              "internalType": "uint160",
              "name": "amount",
              "type": "uint160"
            },
            {
              "internalType": "uint96",
              "name": "collectLimit",
              "type": "uint96"
            },
            {
              "internalType": "address",
              "name": "currency",
              "type": "address"
            },
            {
              "internalType": "uint96",
              "name": "currentCollects",
              "type": "uint96"
            },
            {
              "internalType": "address",
              "name": "recipient",
              "type": "address"
            },
            {
              "internalType": "uint16",
              "name": "referralFee",
              "type": "uint16"
            },
            {
              "internalType": "bool",
              "name": "followerOnly",
              "type": "bool"
            },
            {
              "internalType": "uint72",
              "name": "endTimestamp",
              "type": "uint72"
            }
          ],
          "internalType": "struct BaseProfilePublicationData",
          "name": "",
          "type": "tuple"
        }
      ],
      "stateMutability": "view",
      "type": "function"
    },
    {
      "inputs": [
        {
          "internalType": "uint256",
          "name": "profileId",
          "type": "uint256"
        },
        {
          "internalType": "uint256",
          "name": "pubId",
          "type": "uint256"
        }
      ],
      "name": "getPublicationData",
      "outputs": [
        {
          "components": [
            {
              "internalType": "uint160",
              "name": "amount",
              "type": "uint160"
            },
            {
              "internalType": "uint96",
              "name": "collectLimit",
              "type": "uint96"
            },
            {
              "internalType": "address",
              "name": "currency",
              "type": "address"
            },
            {
              "internalType": "uint96",
              "name": "currentCollects",
              "type": "uint96"
            },
            {
              "internalType": "uint16",
              "name": "referralFee",
              "type": "uint16"
            },
            {
              "internalType": "bool",
              "name": "followerOnly",
              "type": "bool"
            },
            {
              "internalType": "uint72",
              "name": "endTimestamp",
              "type": "uint72"
            },
            {
              "components": [
                {
                  "internalType": "address",
                  "name": "recipient",
                  "type": "address"
                },
                {
                  "internalType": "uint16",
                  "name": "split",
                  "type": "uint16"
                }
              ],
              "internalType": "struct RecipientData[]",
              "name": "recipients",
              "type": "tuple[]"
            }
          ],
          "internalType": "struct MultirecipientFeeCollectProfilePublicationData",
          "name": "",
          "type": "tuple"
        }
      ],
      "stateMutability": "view",
      "type": "function"
    },
    {
      "inputs": [
        {
          "internalType": "uint256",
          "name": "profileId",
          "type": "uint256"
        },
        {
          "internalType": "uint256",
          "name": "pubId",
          "type": "uint256"
        },
        {
          "internalType": "bytes",
          "name": "data",
          "type": "bytes"
        }
      ],
      "name": "initializePublicationCollectModule",
      "outputs": [
        {
          "internalType": "bytes",
          "name": "",
          "type": "bytes"
        }
      ],
      "stateMutability": "nonpayable",
      "type": "function"
    },
    {
      "inputs": [
        {
          "internalType": "uint256",
          "name": "referrerProfileId",
          "type": "uint256"
        },
        {
          "internalType": "address",
          "name": "collector",
          "type": "address"
        },
        {
          "internalType": "uint256",
          "name": "profileId",
          "type": "uint256"
        },
        {
          "internalType": "uint256",
          "name": "pubId",
          "type": "uint256"
        },
        {
          "internalType": "bytes",
          "name": "data",
          "type": "bytes"
        }
      ],
      "name": "processCollect",
      "outputs": [],
      "stateMutability": "nonpayable",
      "type": "function"
    }
  ],
  "bytecode": "0x60c06040523480156200001157600080fd5b5060405162001ef338038062001ef3833981016040819052620000349162000135565b818181816001600160a01b03811662000060576040516348be0eb360e01b815260040160405180910390fd5b6001600160a01b03811660808190526040514281527f4e84a529f4c627b5e787037d117873af1018768804cca3c7f0d47041fe2c89ed9060200160405180910390a2506001600160a01b038116620000cb576040516348be0eb360e01b815260040160405180910390fd5b6001600160a01b03811660a08190526040514281527ff1a1fa6b64aa95186f5a1285e76198d0da80d9c5a88062641d447f1d7c54e56c9060200160405180910390a250505050506200016d565b80516001600160a01b03811681146200013057600080fd5b919050565b600080604083850312156200014957600080fd5b620001548362000118565b9150620001646020840162000118565b90509250929050565b60805160a051611d31620001c26000396000818160ef015281816103100152818161051501528181610c9101528181610daf01528181610ebd015261129401526000818160b00152610fcb0152611d316000f3fe608060405234801561001057600080fd5b506004361061007d5760003560e01c8063bbce35941161005b578063bbce359414610111578063c233f95114610124578063e49c3dda14610144578063fcdd23471461015957600080fd5b80633f5038921461008257806388ffe851146100ab578063a4c52b86146100ea575b600080fd5b610095610090366004611587565b610179565b6040516100a291906115fc565b60405180910390f35b6100d27f000000000000000000000000000000000000000000000000000000000000000081565b6040516001600160a01b0390911681526020016100a2565b6100d27f000000000000000000000000000000000000000000000000000000000000000081565b6100d261011f3660046116f2565b6102dd565b6101376101323660046116f2565b610303565b6040516100a2919061179d565b6101576101523660046117d5565b61050a565b005b61016c610167366004611587565b610591565b6040516100a29190611848565b604080516101008101825260008082526020820181905291810182905260608082018390526080820183905260a0820183905260c0820183905260e0820152906101c38484610591565b6000858152600160209081526040808320878452825280832080548251818502810185019093528083529495509293909291849084015b8282101561024457600084815260209081902060408051808201909152908401546001600160a01b0381168252600160a01b900461ffff16818301528252600190920191016101fa565b50505050905060405180610100016040528083600001516001600160a01b0316815260200183602001516001600160601b0316815260200183604001516001600160a01b0316815260200183606001516001600160601b031681526020018360a0015161ffff1681526020018360c00151151581526020018360e001516001600160481b03168152602001828152509250505092915050565b50506000918252602082815260408084209284529190529020546001600160a01b031690565b6060336001600160a01b037f0000000000000000000000000000000000000000000000000000000000000000161461034e576040516313bd2e8360e31b815260040160405180910390fd5b600061035c83850185611a90565b905060006040518060e0016040528083600001516001600160a01b0316815260200183602001516001600160601b0316815260200183604001516001600160a01b03168152602001836060015161ffff1681526020018360800151151581526020018360a001516001600160481b0316815260200160006001600160a01b031681525090506103ea8161067d565b6103f98260c0015188886106dd565b80516000888152602081815260408083208a8452825291829020908401516001600160601b0316600160a01b9081026001600160a01b03948516178255918401516001820180549185166001600160a01b031990921691909117905560c0840151600290910180546060860151608087015160a08801516001600160481b0316600160b81b026001600160b81b03911515600160b01b02919091166001600160b01b0361ffff9093169096026001600160b01b0319909316949096169390931717919091169190911791909117905584848080601f016020809104026020016040519081016040528093929190818152602001838380828437600092019190915250929a9950505050505050505050565b336001600160a01b037f00000000000000000000000000000000000000000000000000000000000000001614610553576040516313bd2e8360e31b815260040160405180910390fd5b6105618686868686866109c2565b8386141561057b576105768585858585610b00565b610589565b610589868686868686610baf565b505050505050565b6040805161010081018252600080825260208201819052918101829052606081018290526080810182905260a0810182905260c0810182905260e0810191909152506000918252602082815260408084209284529181529181902081516101008101835281546001600160a01b038082168352600160a01b918290046001600160601b0390811696840196909652600184015480821695840195909552938190049094166060820152600290910154918216608082015291810461ffff1660a0830152600160b01b810460ff16151560c0830152600160b81b90046001600160481b031660e082015290565b61271061ffff16816060015161ffff1611806106bc575060a08101516001600160481b0316158015906106bc5750428160a001516001600160481b0316105b156106da576040516348be0eb360e01b815260040160405180910390fd5b50565b8251600581111561070157604051635531b49560e01b815260040160405180910390fd5b8061071f576040516348be0eb360e01b815260040160405180910390fd5b80600114156108455760006001600160a01b03168460008151811061074657610746611b63565b6020026020010151600001516001600160a01b0316141561077a576040516348be0eb360e01b815260040160405180910390fd5b61271061ffff168460008151811061079457610794611b63565b60200260200101516020015161ffff16146107c25760405163195f90f160e21b815260040160405180910390fd5b600083815260016020908152604080832085845290915281208551909186916107ed576107ed611b63565b6020908102919091018101518254600181018455600093845292829020815193018054919092015161ffff16600160a01b026001600160b01b03199091166001600160a01b03909316929092179190911790556109bc565b6000805b828110156109975760006001600160a01b031686828151811061086e5761086e611b63565b6020026020010151600001516001600160a01b031614156108a2576040516348be0eb360e01b815260040160405180910390fd5b8581815181106108b4576108b4611b63565b60200260200101516020015161ffff16600014156108e55760405163409bab8160e01b815260040160405180910390fd5b8581815181106108f7576108f7611b63565b60200260200101516020015161ffff16826109129190611b8f565b6000868152600160209081526040808320888452909152902087519193509087908390811061094357610943611b63565b602090810291909101810151825460018181018555600094855293839020825191018054929093015161ffff16600160a01b026001600160b01b03199092166001600160a01b039091161717905501610849565b5061271081146109ba5760405163195f90f160e21b815260040160405180910390fd5b505b50505050565b600084815260208181526040808320868452909152812060010180546014906109fa90600160a01b90046001600160601b0316611ba7565b82546001600160601b038083166101009490940a938402930219169190911790915560008681526020818152604080832088845290915290206002015490915060ff600160b01b9091041615610a5457610a548587610c78565b600085815260208181526040808320878452909152902060028101549054600160b81b9091046001600160481b031690600160a01b90046001600160601b03168015801590610aab575080836001600160601b0316115b15610ac957604051635b21dfd360e11b815260040160405180910390fd5b8115801590610ad757508142115b15610af5576040516304cd703960e51b815260040160405180910390fd5b505050505050505050565b6000610b0e858585856102dd565b6000868152602081815260408083208884529091529020600101546001600160a01b03918216925016610b4384848385610f74565b600080610b4e610fc6565b90925090506000612710610b6661ffff841687611bce565b610b709190611bed565b9050610b88848b8b8b610b83868b611c0f565b611052565b8015610ba357610ba36001600160a01b0385168b85846111bf565b50505050505050505050565b6000610bbd858585856102dd565b6000868152602081815260408083208884529091529020600101546001600160a01b03918216925016610bf284848385610f74565b6000806000610bff610fc6565b9093509050612710610c1561ffff831687611bce565b610c1f9190611bed565b915060009050610c2f8286611c0f565b9050610c41848c8c8c8c868d8d611219565b9050610c50848b8b8b85611052565b8115610c6b57610c6b6001600160a01b0385168b85856111bf565b5050505050505050505050565b604051633648f48360e21b8152600481018390526000907f00000000000000000000000000000000000000000000000000000000000000006001600160a01b03169063d923d20c90602401602060405180830381865afa158015610ce0573d6000803e3d6000fd5b505050506040513d601f19601f82011682018060405250810190610d049190611c26565b905060006001600160a01b03821615610d96576040516311470f4360e21b8152600481018590526001600160a01b0384811660248301526000604483015283169063451c3d0c90606401602060405180830381865afa158015610d6b573d6000803e3d6000fd5b505050506040513d601f19601f82011682018060405250810190610d8f9190611c43565b9050610ea8565b60405163a9ec656360e01b8152600481018590526000907f00000000000000000000000000000000000000000000000000000000000000006001600160a01b03169063a9ec656390602401602060405180830381865afa158015610dfe573d6000803e3d6000fd5b505050506040513d601f19601f82011682018060405250810190610e229190611c26565b90506001600160a01b03811615801590610ea457506040516370a0823160e01b81526001600160a01b0385811660048301528216906370a0823190602401602060405180830381865afa158015610e7d573d6000803e3d6000fd5b505050506040513d601f19601f82011682018060405250810190610ea19190611c60565b15155b9150505b80158015610f565750826001600160a01b03167f00000000000000000000000000000000000000000000000000000000000000006001600160a01b0316636352211e866040518263ffffffff1660e01b8152600401610f0991815260200190565b602060405180830381865afa158015610f26573d6000803e3d6000fd5b505050506040513d601f19601f82011682018060405250810190610f4a9190611c26565b6001600160a01b031614155b156109bc57604051636992d36b60e11b815260040160405180910390fd5b600080610f8385870187611c79565b915091508281141580610fa85750836001600160a01b0316826001600160a01b031614155b15610589576040516346308bd560e01b815260040160405180910390fd5b6000807f00000000000000000000000000000000000000000000000000000000000000006001600160a01b03166398f965d16040518163ffffffff1660e01b81526004016040805180830381865afa158015611026573d6000803e3d6000fd5b505050506040513d601f19601f8201168201806040525081019061104a9190611ca5565b915091509091565b6000838152600160209081526040808320858452825280832080548251818502810185019093528083529192909190849084015b828210156110d057600084815260209081902060408051808201909152908401546001600160a01b0381168252600160a01b900461ffff1681830152825260019092019101611086565b505082519293505060018214905080156110e957508215155b1561112857611123868360008151811061110557611105611b63565b6020908102919091010151516001600160a01b038a169190866111bf565b6111b6565b6000805b82811015610af55761271061ffff1684828151811061114d5761114d611b63565b60200260200101516020015161ffff16866111689190611bce565b6111729190611bed565b915081156111ae576111ae8885838151811061119057611190611b63565b6020908102919091010151516001600160a01b038c169190856111bf565b60010161112c565b50505050505050565b604080516001600160a01b0385811660248301528416604482015260648082018490528251808303909101815260849091019091526020810180516001600160e01b03166323b872dd60e01b1790526109bc908590611328565b600085815260208181526040808320878452909152812060020154600160a01b900461ffff16801561131a5760006127106112548388611bce565b61125e9190611bed565b90508015611318576112708187611c0f565b6040516331a9108f60e11b8152600481018c90529096506000906001600160a01b037f00000000000000000000000000000000000000000000000000000000000000001690636352211e90602401602060405180830381865afa1580156112db573d6000803e3d6000fd5b505050506040513d601f19601f820116820180604052508101906112ff9190611c26565b90506113166001600160a01b038d168b83856111bf565b505b505b509298975050505050505050565b600061137d826040518060400160405280602081526020017f5361666545524332303a206c6f772d6c6576656c2063616c6c206661696c6564815250856001600160a01b03166114049092919063ffffffff16565b8051909150156113ff578080602001905181019061139b9190611c43565b6113ff5760405162461bcd60e51b815260206004820152602a60248201527f5361666545524332303a204552433230206f7065726174696f6e20646964206e6044820152691bdd081cdd58d8d9595960b21b60648201526084015b60405180910390fd5b505050565b6060611413848460008561141d565b90505b9392505050565b60608247101561147e5760405162461bcd60e51b815260206004820152602660248201527f416464726573733a20696e73756666696369656e742062616c616e636520666f6044820152651c8818d85b1b60d21b60648201526084016113f6565b6001600160a01b0385163b6114d55760405162461bcd60e51b815260206004820152601d60248201527f416464726573733a2063616c6c20746f206e6f6e2d636f6e747261637400000060448201526064016113f6565b600080866001600160a01b031685876040516114f19190611cdf565b60006040518083038185875af1925050503d806000811461152e576040519150601f19603f3d011682016040523d82523d6000602084013e611533565b606091505b509150915061154382828661154e565b979650505050505050565b6060831561155d575081611416565b82511561156d5782518084602001fd5b8160405162461bcd60e51b81526004016113f6919061179d565b6000806040838503121561159a57600080fd5b50508035926020909101359150565b600081518084526020808501945080840160005b838110156115f157815180516001600160a01b0316885283015161ffff1683880152604090960195908201906001016115bd565b509495945050505050565b6020815260018060a01b0382511660208201526001600160601b0360208301511660408201526000604083015161163e60608401826001600160a01b03169052565b5060608301516001600160601b038116608084015250608083015161ffff811660a08401525060a083015180151560c08401525060c08301516001600160481b03811660e08401525060e0830151610100838101526116a16101208401826115a9565b949350505050565b60008083601f8401126116bb57600080fd5b50813567ffffffffffffffff8111156116d357600080fd5b6020830191508360208285010111156116eb57600080fd5b9250929050565b6000806000806060858703121561170857600080fd5b8435935060208501359250604085013567ffffffffffffffff81111561172d57600080fd5b611739878288016116a9565b95989497509550505050565b60005b83811015611760578181015183820152602001611748565b838111156109bc5750506000910152565b60008151808452611789816020860160208601611745565b601f01601f19169290920160200192915050565b6020815260006114166020830184611771565b6001600160a01b03811681146106da57600080fd5b80356117d0816117b0565b919050565b60008060008060008060a087890312156117ee57600080fd5b863595506020870135611800816117b0565b94506040870135935060608701359250608087013567ffffffffffffffff81111561182a57600080fd5b61183689828a016116a9565b979a9699509497509295939492505050565b60006101008201905060018060a01b0380845116835260208401516001600160601b03808216602086015282604087015116604086015280606087015116606086015250508060808501511660808401525060a08301516118af60a084018261ffff169052565b5060c08301516118c360c084018215159052565b5060e08301516118de60e08401826001600160481b03169052565b5092915050565b634e487b7160e01b600052604160045260246000fd5b6040805190810167ffffffffffffffff8111828210171561191e5761191e6118e5565b60405290565b60405160e0810167ffffffffffffffff8111828210171561191e5761191e6118e5565b604051601f8201601f1916810167ffffffffffffffff81118282101715611970576119706118e5565b604052919050565b80356001600160601b03811681146117d057600080fd5b61ffff811681146106da57600080fd5b80356117d08161198f565b80151581146106da57600080fd5b80356117d0816119aa565b80356001600160481b03811681146117d057600080fd5b600082601f8301126119eb57600080fd5b8135602067ffffffffffffffff821115611a0757611a076118e5565b611a15818360051b01611947565b82815260069290921b84018101918181019086841115611a3457600080fd5b8286015b84811015611a855760408189031215611a515760008081fd5b611a596118fb565b8135611a64816117b0565b815281850135611a738161198f565b81860152835291830191604001611a38565b509695505050505050565b600060208284031215611aa257600080fd5b813567ffffffffffffffff80821115611aba57600080fd5b9083019060e08286031215611ace57600080fd5b611ad6611924565b611adf836117c5565b8152611aed60208401611978565b6020820152611afe604084016117c5565b6040820152611b0f6060840161199f565b6060820152611b20608084016119b8565b6080820152611b3160a084016119c3565b60a082015260c083013582811115611b4857600080fd5b611b54878286016119da565b60c08301525095945050505050565b634e487b7160e01b600052603260045260246000fd5b634e487b7160e01b600052601160045260246000fd5b60008219821115611ba257611ba2611b79565b500190565b60006001600160601b0380831681811415611bc457611bc4611b79565b6001019392505050565b6000816000190483118215151615611be857611be8611b79565b500290565b600082611c0a57634e487b7160e01b600052601260045260246000fd5b500490565b600082821015611c2157611c21611b79565b500390565b600060208284031215611c3857600080fd5b8151611416816117b0565b600060208284031215611c5557600080fd5b8151611416816119aa565b600060208284031215611c7257600080fd5b5051919050565b60008060408385031215611c8c57600080fd5b8235611c97816117b0565b946020939093013593505050565b60008060408385031215611cb857600080fd5b8251611cc3816117b0565b6020840151909250611cd48161198f565b809150509250929050565b60008251611cf1818460208701611745565b919091019291505056fea2646970667358221220f9f07d2630ecc695c2991f77ac4939ccf3c13b5387a589cbfe230da7678bb09464736f6c634300080a0033",
  "linkReferences": {},
  "deployedLinkReferences": {}
}